{
  "contractName": "TaskContract",
  "abi": [
    {
      "anonymous": false,
      "inputs": [
        {
          "indexed": false,
          "internalType": "address",
          "name": "receipient",
          "type": "address"
        },
        {
          "indexed": false,
          "internalType": "uint256",
          "name": "taskId",
          "type": "uint256"
        }
      ],
      "name": "AddTaskEvent",
      "type": "event"
    },
    {
      "anonymous": false,
      "inputs": [
        {
          "indexed": false,
          "internalType": "uint256",
          "name": "taskId",
          "type": "uint256"
        },
        {
          "indexed": false,
          "internalType": "bool",
          "name": "isDeleted",
          "type": "bool"
        }
      ],
      "name": "DeleteTaskEvent",
      "type": "event"
    },
    {
      "inputs": [
        {
          "internalType": "string",
          "name": "inputText",
          "type": "string"
        },
        {
          "internalType": "bool",
          "name": "isDeleted",
          "type": "bool"
        }
      ],
      "name": "AddTask",
      "outputs": [],
      "stateMutability": "nonpayable",
      "type": "function"
    },
    {
      "inputs": [],
      "name": "GetDummyString",
      "outputs": [
        {
          "internalType": "string",
          "name": "",
          "type": "string"
        }
      ],
      "stateMutability": "pure",
      "type": "function",
      "constant": true
    },
    {
      "inputs": [],
      "name": "SetDummyStruct",
      "outputs": [],
      "stateMutability": "nonpayable",
      "type": "function"
    },
    {
      "inputs": [],
      "name": "GetDummyStruct",
      "outputs": [
        {
          "components": [
            {
              "internalType": "string",
              "name": "title",
              "type": "string"
            },
            {
              "internalType": "string",
              "name": "author",
              "type": "string"
            },
            {
              "internalType": "uint256",
              "name": "book_id",
              "type": "uint256"
            }
          ],
          "internalType": "struct TaskContract.Book",
          "name": "",
          "type": "tuple"
        }
      ],
      "stateMutability": "view",
      "type": "function",
      "constant": true
    },
    {
      "inputs": [],
      "name": "GetTasks",
      "outputs": [
        {
          "components": [
            {
              "internalType": "uint256",
              "name": "id",
              "type": "uint256"
            },
            {
              "internalType": "string",
              "name": "taskText",
              "type": "string"
            },
            {
              "internalType": "bool",
              "name": "isDeleted",
              "type": "bool"
            }
          ],
          "internalType": "struct TaskContract.Task[]",
          "name": "",
          "type": "tuple[]"
        }
      ],
      "stateMutability": "view",
      "type": "function",
      "constant": true
    },
    {
      "inputs": [
        {
          "internalType": "uint256",
          "name": "taskId",
          "type": "uint256"
        }
      ],
      "name": "DeleteTask",
      "outputs": [],
      "stateMutability": "nonpayable",
      "type": "function"
    }
  ],
  "bytecode": "0x60806040526040518060400160405280600581526020017f68656c6c6f000000000000000000000000000000000000000000000000000000815250600390816200004a9190620002d9565b503480156200005857600080fd5b50620003c0565b600081519050919050565b7f4e487b7100000000000000000000000000000000000000000000000000000000600052604160045260246000fd5b7f4e487b7100000000000000000000000000000000000000000000000000000000600052602260045260246000fd5b60006002820490506001821680620000e157607f821691505b602082108103620000f757620000f662000099565b5b50919050565b60008190508160005260206000209050919050565b60006020601f8301049050919050565b600082821b905092915050565b600060088302620001617fffffffffffffffffffffffffffffffffffffffffffffffffffffffffffffffff8262000122565b6200016d868362000122565b95508019841693508086168417925050509392505050565b6000819050919050565b6000819050919050565b6000620001ba620001b4620001ae8462000185565b6200018f565b62000185565b9050919050565b6000819050919050565b620001d68362000199565b620001ee620001e582620001c1565b8484546200012f565b825550505050565b600090565b62000205620001f6565b62000212818484620001cb565b505050565b5b818110156200023a576200022e600082620001fb565b60018101905062000218565b5050565b601f82111562000289576200025381620000fd565b6200025e8462000112565b810160208510156200026e578190505b620002866200027d8562000112565b83018262000217565b50505b505050565b600082821c905092915050565b6000620002ae600019846008026200028e565b1980831691505092915050565b6000620002c983836200029b565b9150826002028217905092915050565b620002e4826200005f565b67ffffffffffffffff8111156200030057620002ff6200006a565b5b6200030c8254620000c8565b620003198282856200023e565b600060209050601f8311600181146200035157600084156200033c578287015190505b620003488582620002bb565b865550620003b8565b601f1984166200036186620000fd565b60005b828110156200038b5784890151825560018201915060208501945060208101905062000364565b86831015620003ab5784890151620003a7601f8916826200029b565b8355505b6001600288020188555050505b505050505050565b61135d80620003d06000396000f3fe608060405234801561001057600080fd5b50600436106100625760003560e01c806306b509f4146100675780634d87cc64146100715780637658eb191461008f57806377d0e9c7146100ad5780638c2dccd1146100cb578063f03f8ad7146100e7575b600080fd5b61006f610103565b005b61007961019f565b6040516100869190610aeb565b60405180910390f35b6100976102ec565b6040516100a49190610b57565b60405180910390f35b6100b561032f565b6040516100c29190610ca6565b60405180910390f35b6100e560048036038101906100e09190610d08565b610766565b005b61010160048036038101906100fc9190610e96565b610879565b005b6040518060400160405280600781526020017f4a414d45532042000000000000000000000000000000000000000000000000008152506000600101908161014a91906110fe565b5060016000600201819055506040518060400160405280600a81526020017f4c6561726e204a6176610000000000000000000000000000000000000000000081525060008001908161019c91906110fe565b50565b6101a761099e565b6000806040518060600160405290816000820180546101c590610f21565b80601f01602080910402602001604051908101604052809291908181526020018280546101f190610f21565b801561023e5780601f106102135761010080835404028352916020019161023e565b820191906000526020600020905b81548152906001019060200180831161022157829003601f168201915b5050505050815260200160018201805461025790610f21565b80601f016020809104026020016040519081016040528092919081815260200182805461028390610f21565b80156102d05780601f106102a5576101008083540402835291602001916102d0565b820191906000526020600020905b8154815290600101906020018083116102b357829003601f168201915b5050505050815260200160028201548152505090508091505090565b606060006040518060400160405280600e81526020017f61206c6f74206f6620626f6f6b7300000000000000000000000000000000000081525090508091505090565b60606000600267ffffffffffffffff81111561034e5761034d610d3f565b5b60405190808252806020026020018201604052801561038757816020015b6103746109bf565b81526020019060019003908161036c5790505b5090506040518060600160405280600081526020016040518060400160405280600b81526020017f53616d706c652074657874000000000000000000000000000000000000000000815250815260200160001515815250816000815181106103f2576103f16111d0565b5b60200260200101819052506040518060600160405280600181526020016040518060400160405280600d81526020017f5365636f6e642073616d706c650000000000000000000000000000000000000081525081526020016000151581525081600181518110610465576104646111d0565b5b6020026020010181905250600060048054905067ffffffffffffffff81111561049157610490610d3f565b5b6040519080825280602002602001820160405280156104ca57816020015b6104b76109bf565b8152602001906001900390816104af5790505b5090506000805b6004805490508110156106ab573373ffffffffffffffffffffffffffffffffffffffff166006600083815260200190815260200160002060009054906101000a900473ffffffffffffffffffffffffffffffffffffffff1673ffffffffffffffffffffffffffffffffffffffff161480156105825750600015156004828154811061055f5761055e6111d0565b5b906000526020600020906003020160020160009054906101000a900460ff161515145b15610698576004818154811061059b5761059a6111d0565b5b9060005260206000209060030201604051806060016040529081600082015481526020016001820180546105ce90610f21565b80601f01602080910402602001604051908101604052809291908181526020018280546105fa90610f21565b80156106475780601f1061061c57610100808354040283529160200191610647565b820191906000526020600020905b81548152906001019060200180831161062a57829003601f168201915b505050505081526020016002820160009054906101000a900460ff16151515158152505083838151811061067e5761067d6111d0565b5b602002602001018190525081806106949061122e565b9250505b80806106a39061122e565b9150506104d1565b5060008167ffffffffffffffff8111156106c8576106c7610d3f565b5b60405190808252806020026020018201604052801561070157816020015b6106ee6109bf565b8152602001906001900390816106e65790505b50905060005b8281101561075b57838181518110610722576107216111d0565b5b602002602001015182828151811061073d5761073c6111d0565b5b602002602001018190525080806107539061122e565b915050610707565b508094505050505090565b3373ffffffffffffffffffffffffffffffffffffffff166006600083815260200190815260200160002060009054906101000a900473ffffffffffffffffffffffffffffffffffffffff1673ffffffffffffffffffffffffffffffffffffffff1603610876576001600482815481106107e2576107e16111d0565b5b906000526020600020906003020160020160006101000a81548160ff0219169083151502179055507f12421f3ac7f32a6f9c90d10516fd3ad81a755f50e2ad7aa93b13eec03a8fd96e81600483815481106108405761083f6111d0565b5b906000526020600020906003020160020160009054906101000a900460ff1660405161086d929190611294565b60405180910390a15b50565b60006004805490509050600460405180606001604052808381526020018581526020016000151581525090806001815401808255809150506001900390600052602060002090600302016000909190919091506000820151816000015560208201518160010190816108eb91906110fe565b5060408201518160020160006101000a81548160ff0219169083151502179055505050336006600083815260200190815260200160002060006101000a81548173ffffffffffffffffffffffffffffffffffffffff021916908373ffffffffffffffffffffffffffffffffffffffff1602179055507fc94a9762f4f8f54f49a3fd4d4dd3a374a8a896f73ecdf4e49d7bfb174521e47c33826040516109919291906112fe565b60405180910390a1505050565b60405180606001604052806060815260200160608152602001600081525090565b604051806060016040528060008152602001606081526020016000151581525090565b600081519050919050565b600082825260208201905092915050565b60005b83811015610a1c578082015181840152602081019050610a01565b83811115610a2b576000848401525b50505050565b6000601f19601f8301169050919050565b6000610a4d826109e2565b610a5781856109ed565b9350610a678185602086016109fe565b610a7081610a31565b840191505092915050565b6000819050919050565b610a8e81610a7b565b82525050565b60006060830160008301518482036000860152610ab18282610a42565b91505060208301518482036020860152610acb8282610a42565b9150506040830151610ae06040860182610a85565b508091505092915050565b60006020820190508181036000830152610b058184610a94565b905092915050565b600082825260208201905092915050565b6000610b29826109e2565b610b338185610b0d565b9350610b438185602086016109fe565b610b4c81610a31565b840191505092915050565b60006020820190508181036000830152610b718184610b1e565b905092915050565b600081519050919050565b600082825260208201905092915050565b6000819050602082019050919050565b60008115159050919050565b610bba81610ba5565b82525050565b6000606083016000830151610bd86000860182610a85565b5060208301518482036020860152610bf08282610a42565b9150506040830151610c056040860182610bb1565b508091505092915050565b6000610c1c8383610bc0565b905092915050565b6000602082019050919050565b6000610c3c82610b79565b610c468185610b84565b935083602082028501610c5885610b95565b8060005b85811015610c945784840389528151610c758582610c10565b9450610c8083610c24565b925060208a01995050600181019050610c5c565b50829750879550505050505092915050565b60006020820190508181036000830152610cc08184610c31565b905092915050565b6000604051905090565b600080fd5b600080fd5b610ce581610a7b565b8114610cf057600080fd5b50565b600081359050610d0281610cdc565b92915050565b600060208284031215610d1e57610d1d610cd2565b5b6000610d2c84828501610cf3565b91505092915050565b600080fd5b600080fd5b7f4e487b7100000000000000000000000000000000000000000000000000000000600052604160045260246000fd5b610d7782610a31565b810181811067ffffffffffffffff82111715610d9657610d95610d3f565b5b80604052505050565b6000610da9610cc8565b9050610db58282610d6e565b919050565b600067ffffffffffffffff821115610dd557610dd4610d3f565b5b610dde82610a31565b9050602081019050919050565b82818337600083830152505050565b6000610e0d610e0884610dba565b610d9f565b905082815260208101848484011115610e2957610e28610d3a565b5b610e34848285610deb565b509392505050565b600082601f830112610e5157610e50610d35565b5b8135610e61848260208601610dfa565b91505092915050565b610e7381610ba5565b8114610e7e57600080fd5b50565b600081359050610e9081610e6a565b92915050565b60008060408385031215610ead57610eac610cd2565b5b600083013567ffffffffffffffff811115610ecb57610eca610cd7565b5b610ed785828601610e3c565b9250506020610ee885828601610e81565b9150509250929050565b7f4e487b7100000000000000000000000000000000000000000000000000000000600052602260045260246000fd5b60006002820490506001821680610f3957607f821691505b602082108103610f4c57610f4b610ef2565b5b50919050565b60008190508160005260206000209050919050565b60006020601f8301049050919050565b600082821b905092915050565b600060088302610fb47fffffffffffffffffffffffffffffffffffffffffffffffffffffffffffffffff82610f77565b610fbe8683610f77565b95508019841693508086168417925050509392505050565b6000819050919050565b6000610ffb610ff6610ff184610a7b565b610fd6565b610a7b565b9050919050565b6000819050919050565b61101583610fe0565b61102961102182611002565b848454610f84565b825550505050565b600090565b61103e611031565b61104981848461100c565b505050565b5b8181101561106d57611062600082611036565b60018101905061104f565b5050565b601f8211156110b25761108381610f52565b61108c84610f67565b8101602085101561109b578190505b6110af6110a785610f67565b83018261104e565b50505b505050565b600082821c905092915050565b60006110d5600019846008026110b7565b1980831691505092915050565b60006110ee83836110c4565b9150826002028217905092915050565b611107826109e2565b67ffffffffffffffff8111156111205761111f610d3f565b5b61112a8254610f21565b611135828285611071565b600060209050601f8311600181146111685760008415611156578287015190505b61116085826110e2565b8655506111c8565b601f19841661117686610f52565b60005b8281101561119e57848901518255600182019150602085019450602081019050611179565b868310156111bb57848901516111b7601f8916826110c4565b8355505b6001600288020188555050505b505050505050565b7f4e487b7100000000000000000000000000000000000000000000000000000000600052603260045260246000fd5b7f4e487b7100000000000000000000000000000000000000000000000000000000600052601160045260246000fd5b600061123982610a7b565b91507fffffffffffffffffffffffffffffffffffffffffffffffffffffffffffffffff820361126b5761126a6111ff565b5b600182019050919050565b61127f81610a7b565b82525050565b61128e81610ba5565b82525050565b60006040820190506112a96000830185611276565b6112b66020830184611285565b9392505050565b600073ffffffffffffffffffffffffffffffffffffffff82169050919050565b60006112e8826112bd565b9050919050565b6112f8816112dd565b82525050565b600060408201905061131360008301856112ef565b6113206020830184611276565b939250505056fea26469706673582212207d114e5242cfb00ab52bfadeb1c8d913349ccc067b183a5d7ea069d9ea7d7a7764736f6c634300080f0033",
  "immutableReferences": {},
  "source": "// SPDX-License-Identifier: MIT\npragma solidity >=0.4.22 <0.9.0;\npragma experimental ABIEncoderV2;\n\ncontract TaskContract {\n    event AddTaskEvent(address receipient, uint taskId);\n    event DeleteTaskEvent(uint taskId, bool isDeleted);\n\n    struct Task {\n        uint id;\n        string taskText;\n        bool isDeleted;\n    }\n\n    struct Book {\n        string title;\n        string author;\n        uint book_id;\n    }\n\n    Book book;\n\n    string hello = \"hello\";\n    // tasks is a variable of type Task that is persistengly stored in the blockchain storage\n    Task[] private tasks;\n    Task[] private testStruct;\n    mapping(uint256 => address) taskToOwner;\n\n    //\n    // Add task -> push to array using struct(data, data, data) format.\n    // check what tasks.length turns out to be lenght/ or l -1\n    //\n    function AddTask(string memory inputText, bool isDeleted) external {\n        //note using length automatically gives us the right index for the arrays\n        uint textId = tasks.length;\n        tasks.push(Task(textId, inputText, false));\n        taskToOwner[textId] = msg.sender;\n        emit AddTaskEvent(msg.sender, textId);\n    }\n\n    function GetDummyString() external pure returns (string memory) {\n        string memory result = \"a lot of books\";\n        return result;\n    }\n\n    function SetDummyStruct() public {\n        book.author = \"JAMES B\";\n        book.book_id = 1;\n        book.title = \"Learn Java\";\n    }\n\n    function GetDummyStruct() external view returns (Book memory) {\n        Book memory result = book;\n        return result;\n    }\n\n    // loop through all the taskToOwner arrays and get the task IDs linked to the owner\n    // then loop through the tasks struct array to retrieve the tasks matching the retrieved task IDs for the owner.\n    function GetTasks() external view returns (Task[] memory) {\n        // function GetTasks() view external returns(string memory) {\n        // get the loop counter\n        // uint loopCounter = texttoOwner.length;\n        //initialize an array to be returned when its done.\n        // will we have access to tasks.lenght here ??\n        // uint[] memory taskIds = new taskToOwner[](taskToOwner.length);\n        // taskid index\n        Task[] memory tempresult = new Task[](2);\n\n        tempresult[0] = Task({\n            id: 0,\n            taskText: \"Sample text\",\n            isDeleted: false\n        });\n        tempresult[1] = Task({\n            id: 1,\n            taskText: \"Second sample\",\n            isDeleted: false\n        });\n\n        Task[] memory temporary = new Task[](tasks.length);\n        uint counter = 0;\n\n        for (uint i = 0; i < tasks.length; i++) {\n            if (taskToOwner[i] == msg.sender && tasks[i].isDeleted == false) {\n                temporary[counter] = tasks[i];\n                counter++;\n            }\n        }\n\n        Task[] memory result = new Task[](counter);\n        for (uint i = 0; i < counter; i++) {\n            result[i] = temporary[i];\n        }\n        return result;\n        // uint[] memory taskIds;\n        // uint taskIdsIndex = 0;\n        // Task[] memory result = new Task[](tasks.length);\n\n        // // check if msg.sender has matching IDs, if so save them\n        // for (uint i = 0; i < tasks.length; i++) {\n        //     //   // if owner has taskids associated with address, save the task ids\n        //     if (taskToOwner[i] == msg.sender && tasks[i].isDeleted == false) {\n        //         // fetch the taskIDs for use later\n        //         taskIds[taskIdsIndex] = tasks[i].id;\n        //         taskIdsIndex++;\n        //     }\n\n        //     // now retrieve the task from the task struct.\n        //     uint counter = 0;\n        //     for (i = 0; i < taskIdsIndex; i++) {\n        //         if (tasks[i].id == taskIds[i]) {\n        //             result[counter] = tasks[i];\n        //             counter++;\n        //         }\n        //     }\n        // }\n        // return result;\n    }\n\n    // why not delete the array element ?\n    function DeleteTask(uint taskId) external {\n        if (taskToOwner[taskId] == msg.sender) {\n            tasks[taskId].isDeleted = true;\n            emit DeleteTaskEvent(taskId, tasks[taskId].isDeleted);\n        }\n    }\n}\n",
  "sourcePath": "/Users/shaamaa/Developer/solidityreact/Solidity-Todo-List/backend/contracts/TaskContract.sol",
  "compiler": {
    "name": "solc",
    "version": "0.8.15+commit.e14f2714.Emscripten.clang"
  },
  "schemaVersion": "3.4.13",
  "updatedAt": "2023-05-12T02:06:37.200Z",
  "networkType": "ethereum",
  "devdoc": {
    "kind": "dev",
    "methods": {},
    "version": 1
  },
  "userdoc": {
    "kind": "user",
    "methods": {},
    "version": 1
  }
}